:060000000A128A112F2FE5
:100E5E0083010A128A11AE2FF50106307502031CAA
:100E6E00392F3A2F3C2F562F562F75080A128A11FA
:100E7E0080270A128A116430F0000030F1000A1245
:100E8E008A1157270A128A110130F4007408F507E7
:100E9E0006307502031C542F552F3C2F562F080079
:100EAE0071087004031D5C2F5D2F5F2F7F2F7F2F26
:100EBE00FA30F2007208F300F308031D672F682F53
:100ECE006A2F722F722F0130F302F308031D702F59
:100EDE00712F6A2F722F0130F0020030031CF103C4
:100EEE00F10271087004031D7D2F7E2F5F2F7F2F5F
:100EFE000800F0009C2F0630831203138600AD2FDE
:100F0E005B30831203138600AD2F4F308312031311
:100F1E008600AD2F6630831203138600AD2F6D3021
:100F2E00831203138600AD2FAD2F7008013A0319FB
:100F3E00822F033A0319872F013A03198C2F073A90
:100F4E000319912F013A0319962FAD2F080083161E
:100F5E00031386018701B32F013083120313870019
:100F6E000A128A1133270A128A11033083120313CD
:100F7E0087000A128A1133270A128A11023083124D
:100F8E00031387000A128A1133270A128A110630B8
:100F9E008312031387000A128A1133270A128A1149
:100FAE0004308312031387000A128A1133270A12A0
:100FBE008A110C308312031387000A128A11332709
:100FCE000A128A1108308312031387000A128A113B
:100FDE0033270A128A1109308312031387000A126B
:100FEE008A1133270A128A11B32FB32F0A128A11CC
:020FFE000028C9
:00000001FF
